{
  "contractName": "Lottery",
  "abi": [
    {
      "inputs": [],
      "stateMutability": "nonpayable",
      "type": "constructor"
    },
    {
      "inputs": [
        {
          "internalType": "uint256",
          "name": "",
          "type": "uint256"
        }
      ],
      "name": "lotteryHistory",
      "outputs": [
        {
          "internalType": "address payable",
          "name": "",
          "type": "address"
        }
      ],
      "stateMutability": "view",
      "type": "function",
      "constant": true
    },
    {
      "inputs": [],
      "name": "lotteryId",
      "outputs": [
        {
          "internalType": "uint256",
          "name": "",
          "type": "uint256"
        }
      ],
      "stateMutability": "view",
      "type": "function",
      "constant": true
    },
    {
      "inputs": [],
      "name": "owner",
      "outputs": [
        {
          "internalType": "address",
          "name": "",
          "type": "address"
        }
      ],
      "stateMutability": "view",
      "type": "function",
      "constant": true
    },
    {
      "inputs": [
        {
          "internalType": "uint256",
          "name": "",
          "type": "uint256"
        }
      ],
      "name": "players",
      "outputs": [
        {
          "internalType": "address payable",
          "name": "",
          "type": "address"
        }
      ],
      "stateMutability": "view",
      "type": "function",
      "constant": true
    },
    {
      "inputs": [],
      "name": "randomResult",
      "outputs": [
        {
          "internalType": "uint256",
          "name": "",
          "type": "uint256"
        }
      ],
      "stateMutability": "view",
      "type": "function",
      "constant": true
    },
    {
      "inputs": [
        {
          "internalType": "bytes32",
          "name": "requestId",
          "type": "bytes32"
        },
        {
          "internalType": "uint256",
          "name": "randomness",
          "type": "uint256"
        }
      ],
      "name": "rawFulfillRandomness",
      "outputs": [],
      "stateMutability": "nonpayable",
      "type": "function"
    },
    {
      "inputs": [],
      "name": "getRandomNumber",
      "outputs": [
        {
          "internalType": "bytes32",
          "name": "requestId",
          "type": "bytes32"
        }
      ],
      "stateMutability": "nonpayable",
      "type": "function"
    },
    {
      "inputs": [
        {
          "internalType": "uint256",
          "name": "lottery",
          "type": "uint256"
        }
      ],
      "name": "getWinnerByLottery",
      "outputs": [
        {
          "internalType": "address payable",
          "name": "",
          "type": "address"
        }
      ],
      "stateMutability": "view",
      "type": "function",
      "constant": true
    },
    {
      "inputs": [],
      "name": "getBalance",
      "outputs": [
        {
          "internalType": "uint256",
          "name": "",
          "type": "uint256"
        }
      ],
      "stateMutability": "view",
      "type": "function",
      "constant": true
    },
    {
      "inputs": [],
      "name": "getPlayers",
      "outputs": [
        {
          "internalType": "address payable[]",
          "name": "",
          "type": "address[]"
        }
      ],
      "stateMutability": "view",
      "type": "function",
      "constant": true
    },
    {
      "inputs": [],
      "name": "enter",
      "outputs": [],
      "stateMutability": "payable",
      "type": "function",
      "payable": true
    },
    {
      "inputs": [],
      "name": "pickWinner",
      "outputs": [],
      "stateMutability": "nonpayable",
      "type": "function"
    },
    {
      "inputs": [],
      "name": "payWinner",
      "outputs": [],
      "stateMutability": "nonpayable",
      "type": "function"
    }
  ],
  "bytecode": "0x60c060405234801561001057600080fd5b50732ca8e0c643bde4c2e08ab1fa0da3401adad7734d73326c977e6efc84e512bb9c30f76e30c160ed06fb8173ffffffffffffffffffffffffffffffffffffffff1660a08173ffffffffffffffffffffffffffffffffffffffff16815250508073ffffffffffffffffffffffffffffffffffffffff1660808173ffffffffffffffffffffffffffffffffffffffff168152505050507f79d3d8832d904592c0bf9818b621522c988bb8b0c05cdc3b15aea1b6e8db0c1560001b6005819055506703782dace9d9000060068190555033600160006101000a81548173ffffffffffffffffffffffffffffffffffffffff021916908373ffffffffffffffffffffffffffffffffffffffff160217905550600160038190555060805160a05161136461015a6000396000818161047a01526108fd01526000818161070901526108c101526113646000f3fe6080604052600436106100c25760003560e01c80638da5cb5b1161007f578063dbdff2c111610059578063dbdff2c114610244578063e580f47b1461026f578063e97dcb621461029a578063f71d96cb146102a4576100c2565b80638da5cb5b146101d957806394985ddd14610204578063be71248a1461022d576100c2565b806312065fe0146100c7578063281d098d146100f257806342619f661461012f5780635d495aea1461015a5780636d6fe230146101715780638b5b9ccc146101ae575b600080fd5b3480156100d357600080fd5b506100dc6102e1565b6040516100e99190610b3c565b60405180910390f35b3480156100fe57600080fd5b5061011960048036038101906101149190610b88565b6102e9565b6040516101269190610bf6565b60405180910390f35b34801561013b57600080fd5b50610144610326565b6040516101519190610b3c565b60405180910390f35b34801561016657600080fd5b5061016f61032c565b005b34801561017d57600080fd5b5061019860048036038101906101939190610b88565b610391565b6040516101a59190610bf6565b60405180910390f35b3480156101ba57600080fd5b506101c36103c4565b6040516101d09190610ccf565b60405180910390f35b3480156101e557600080fd5b506101ee610452565b6040516101fb9190610d12565b60405180910390f35b34801561021057600080fd5b5061022b60048036038101906102269190610d63565b610478565b005b34801561023957600080fd5b50610242610514565b005b34801561025057600080fd5b50610259610702565b6040516102669190610db2565b60405180910390f35b34801561027b57600080fd5b506102846107f5565b6040516102919190610b3c565b60405180910390f35b6102a26107fb565b005b3480156102b057600080fd5b506102cb60048036038101906102c69190610b88565b610873565b6040516102d89190610bf6565b60405180910390f35b600047905090565b60006004600083815260200190815260200160002060009054906101000a900473ffffffffffffffffffffffffffffffffffffffff169050919050565b60075481565b600160009054906101000a900473ffffffffffffffffffffffffffffffffffffffff1673ffffffffffffffffffffffffffffffffffffffff163373ffffffffffffffffffffffffffffffffffffffff161461038657600080fd5b61038e610702565b50565b60046020528060005260406000206000915054906101000a900473ffffffffffffffffffffffffffffffffffffffff1681565b6060600280548060200260200160405190810160405280929190818152602001828054801561044857602002820191906000526020600020905b8160009054906101000a900473ffffffffffffffffffffffffffffffffffffffff1673ffffffffffffffffffffffffffffffffffffffff16815260200190600101908083116103fe575b5050505050905090565b600160009054906101000a900473ffffffffffffffffffffffffffffffffffffffff1681565b7f000000000000000000000000000000000000000000000000000000000000000073ffffffffffffffffffffffffffffffffffffffff163373ffffffffffffffffffffffffffffffffffffffff1614610506576040517f08c379a00000000000000000000000000000000000000000000000000000000081526004016104fd90610e2a565b60405180910390fd5b61051082826108b2565b5050565b600060075411610559576040517f08c379a000000000000000000000000000000000000000000000000000000000815260040161055090610ebc565b60405180910390fd5b600060028054905060075461056e9190610f0b565b90506002818154811061058457610583610f3c565b5b9060005260206000200160009054906101000a900473ffffffffffffffffffffffffffffffffffffffff1673ffffffffffffffffffffffffffffffffffffffff166108fc479081150290604051600060405180830381858888f193505050501580156105f4573d6000803e3d6000fd5b506002818154811061060957610608610f3c565b5b9060005260206000200160009054906101000a900473ffffffffffffffffffffffffffffffffffffffff1660046000600354815260200190815260200160002060006101000a81548173ffffffffffffffffffffffffffffffffffffffff021916908373ffffffffffffffffffffffffffffffffffffffff1602179055506003600081548092919061069a90610f9a565b9190505550600067ffffffffffffffff8111156106ba576106b9610fe3565b5b6040519080825280602002602001820160405280156106e85781602001602082028036833780820191505090505b50600290805190602001906106fe929190610a7c565b5050565b60006006547f000000000000000000000000000000000000000000000000000000000000000073ffffffffffffffffffffffffffffffffffffffff166370a08231306040518263ffffffff1660e01b81526004016107609190610d12565b602060405180830381865afa15801561077d573d6000803e3d6000fd5b505050506040513d601f19601f820116820180604052508101906107a19190611027565b10156107e2576040517f08c379a00000000000000000000000000000000000000000000000000000000081526004016107d9906110a0565b60405180910390fd5b6107f06005546006546108bd565b905090565b60035481565b662386f26fc10000341161080e57600080fd5b6002339080600181540180825580915050600190039060005260206000200160009091909190916101000a81548173ffffffffffffffffffffffffffffffffffffffff021916908373ffffffffffffffffffffffffffffffffffffffff160217905550565b6002818154811061088357600080fd5b906000526020600020016000915054906101000a900473ffffffffffffffffffffffffffffffffffffffff1681565b806007819055505050565b60007f000000000000000000000000000000000000000000000000000000000000000073ffffffffffffffffffffffffffffffffffffffff16634000aea07f0000000000000000000000000000000000000000000000000000000000000000848660006040516020016109319291906110c0565b6040516020818303038152906040526040518463ffffffff1660e01b815260040161095e93929190611182565b6020604051808303816000875af115801561097d573d6000803e3d6000fd5b505050506040513d601f19601f820116820180604052508101906109a191906111f8565b5060006109c38460003060008089815260200190815260200160002054610a0d565b90506001600080868152602001908152602001600020546109e49190611225565b60008086815260200190815260200160002081905550610a048482610a49565b91505092915050565b600084848484604051602001610a26949392919061127b565b6040516020818303038152906040528051906020012060001c9050949350505050565b60008282604051602001610a5e929190611302565b60405160208183030381529060405280519060200120905092915050565b828054828255906000526020600020908101928215610af5579160200282015b82811115610af45782518260006101000a81548173ffffffffffffffffffffffffffffffffffffffff021916908373ffffffffffffffffffffffffffffffffffffffff16021790555091602001919060010190610a9c565b5b509050610b029190610b06565b5090565b5b80821115610b1f576000816000905550600101610b07565b5090565b6000819050919050565b610b3681610b23565b82525050565b6000602082019050610b516000830184610b2d565b92915050565b600080fd5b610b6581610b23565b8114610b7057600080fd5b50565b600081359050610b8281610b5c565b92915050565b600060208284031215610b9e57610b9d610b57565b5b6000610bac84828501610b73565b91505092915050565b600073ffffffffffffffffffffffffffffffffffffffff82169050919050565b6000610be082610bb5565b9050919050565b610bf081610bd5565b82525050565b6000602082019050610c0b6000830184610be7565b92915050565b600081519050919050565b600082825260208201905092915050565b6000819050602082019050919050565b610c4681610bd5565b82525050565b6000610c588383610c3d565b60208301905092915050565b6000602082019050919050565b6000610c7c82610c11565b610c868185610c1c565b9350610c9183610c2d565b8060005b83811015610cc2578151610ca98882610c4c565b9750610cb483610c64565b925050600181019050610c95565b5085935050505092915050565b60006020820190508181036000830152610ce98184610c71565b905092915050565b6000610cfc82610bb5565b9050919050565b610d0c81610cf1565b82525050565b6000602082019050610d276000830184610d03565b92915050565b6000819050919050565b610d4081610d2d565b8114610d4b57600080fd5b50565b600081359050610d5d81610d37565b92915050565b60008060408385031215610d7a57610d79610b57565b5b6000610d8885828601610d4e565b9250506020610d9985828601610b73565b9150509250929050565b610dac81610d2d565b82525050565b6000602082019050610dc76000830184610da3565b92915050565b600082825260208201905092915050565b7f4f6e6c7920565246436f6f7264696e61746f722063616e2066756c66696c6c00600082015250565b6000610e14601f83610dcd565b9150610e1f82610dde565b602082019050919050565b60006020820190508181036000830152610e4381610e07565b9050919050565b7f4d7573742068617665206120736f75726365206f662072616e646f6d6e65737360008201527f206265666f72652063686f6f73696e672077696e6e6572000000000000000000602082015250565b6000610ea6603783610dcd565b9150610eb182610e4a565b604082019050919050565b60006020820190508181036000830152610ed581610e99565b9050919050565b7f4e487b7100000000000000000000000000000000000000000000000000000000600052601260045260246000fd5b6000610f1682610b23565b9150610f2183610b23565b925082610f3157610f30610edc565b5b828206905092915050565b7f4e487b7100000000000000000000000000000000000000000000000000000000600052603260045260246000fd5b7f4e487b7100000000000000000000000000000000000000000000000000000000600052601160045260246000fd5b6000610fa582610b23565b91507fffffffffffffffffffffffffffffffffffffffffffffffffffffffffffffffff821415610fd857610fd7610f6b565b5b600182019050919050565b7f4e487b7100000000000000000000000000000000000000000000000000000000600052604160045260246000fd5b60008151905061102181610b5c565b92915050565b60006020828403121561103d5761103c610b57565b5b600061104b84828501611012565b91505092915050565b7f4e6f7420656e6f756768204c494e4b20696e20636f6e74726163740000000000600082015250565b600061108a601b83610dcd565b915061109582611054565b602082019050919050565b600060208201905081810360008301526110b98161107d565b9050919050565b60006040820190506110d56000830185610da3565b6110e26020830184610b2d565b9392505050565b600081519050919050565b600082825260208201905092915050565b60005b83811015611123578082015181840152602081019050611108565b83811115611132576000848401525b50505050565b6000601f19601f8301169050919050565b6000611154826110e9565b61115e81856110f4565b935061116e818560208601611105565b61117781611138565b840191505092915050565b60006060820190506111976000830186610d03565b6111a46020830185610b2d565b81810360408301526111b68184611149565b9050949350505050565b60008115159050919050565b6111d5816111c0565b81146111e057600080fd5b50565b6000815190506111f2816111cc565b92915050565b60006020828403121561120e5761120d610b57565b5b600061121c848285016111e3565b91505092915050565b600061123082610b23565b915061123b83610b23565b9250827fffffffffffffffffffffffffffffffffffffffffffffffffffffffffffffffff038211156112705761126f610f6b565b5b828201905092915050565b60006080820190506112906000830187610da3565b61129d6020830186610b2d565b6112aa6040830185610d03565b6112b76060830184610b2d565b95945050505050565b6000819050919050565b6112db6112d682610d2d565b6112c0565b82525050565b6000819050919050565b6112fc6112f782610b23565b6112e1565b82525050565b600061130e82856112ca565b60208201915061131e82846112eb565b602082019150819050939250505056fea26469706673582212209b0688bc5b1e8d8e4e9b46d9cd084bd7f5e1a4d2e38e7cab0ab899926414b8fb64736f6c634300080b0033",
  "immutableReferences": {
    "73": [
      {
        "length": 32,
        "start": 1801
      },
      {
        "length": 32,
        "start": 2241
      }
    ],
    "75": [
      {
        "length": 32,
        "start": 1146
      },
      {
        "length": 32,
        "start": 2301
      }
    ]
  },
  "source": "// SPDX-License-Identifier: MIT\n\npragma solidity ^0.8.11;\n\nimport \"@chainlink/contracts/src/v0.8/VRFConsumerBase.sol\";\n\ncontract Lottery is VRFConsumerBase {\n    address public owner;\n    address payable[] public players;\n    uint public lotteryId;\n    mapping (uint => address payable) public lotteryHistory;\n\n    bytes32 internal keyHash; // identifies which Chainlink oracle to use\n    uint internal fee;        // fee to get random number\n    uint public randomResult;\n\n    constructor()\n        VRFConsumerBase(\n            0x2Ca8E0C643bDe4C2E08ab1fA0da3401AdAD7734D, // VRF coordinator\n            0x326C977E6efc84E512bB9C30f76E30c160eD06FB  // LINK token address\n        ) {\n            keyHash = 0x79d3d8832d904592c0bf9818b621522c988bb8b0c05cdc3b15aea1b6e8db0c15;\n            fee = 0.25 * 10 ** 18;    // 0.1 LINK\n\n            owner = msg.sender;\n            lotteryId = 1;\n        }\n\n    function getRandomNumber() public returns (bytes32 requestId) {\n        require(LINK.balanceOf(address(this)) >= fee, \"Not enough LINK in contract\");\n        return requestRandomness(keyHash, fee);\n    }\n\n    function fulfillRandomness(bytes32 requestId, uint randomness) internal override {\n        randomResult = randomness;\n    }\n\n    function getWinnerByLottery(uint lottery) public view returns (address payable) {\n        return lotteryHistory[lottery];\n    }\n\n    function getBalance() public view returns (uint) {\n        return address(this).balance;\n    }\n\n    function getPlayers() public view returns (address payable[] memory) {\n        return players;\n    }\n\n    function enter() public payable {\n        require(msg.value > .01 ether);\n\n        // address of player entering lottery\n        players.push(payable(msg.sender));\n    }\n\n    function pickWinner() public onlyowner {\n        getRandomNumber();\n    }\n\n    function payWinner() public {\n        require(randomResult > 0, \"Must have a source of randomness before choosing winner\");\n        uint index = randomResult % players.length;\n        players[index].transfer(address(this).balance);\n\n        lotteryHistory[lotteryId] = players[index];\n        lotteryId++;\n        \n        // reset the state of the contract\n        players = new address payable[](0);\n    }\n\n    modifier onlyowner() {\n      require(msg.sender == owner);\n      _;\n    }\n}",
  "sourcePath": "/Users/eldarst/React/lottery-smart-contract/contracts/Lottery.sol",
  "compiler": {
    "name": "solc",
    "version": "0.8.11+commit.d7f03943.Emscripten.clang"
  },
  "schemaVersion": "3.4.11",
  "updatedAt": "2022-12-25T20:51:25.559Z",
  "networkType": "ethereum",
  "devdoc": {
    "kind": "dev",
    "methods": {},
    "version": 1
  },
  "userdoc": {
    "kind": "user",
    "methods": {},
    "version": 1
  }
}