{
  "contractName": "Lottery",
  "abi": [
    {
      "inputs": [],
      "stateMutability": "nonpayable",
      "type": "constructor"
    },
    {
      "inputs": [
        {
          "internalType": "uint256",
          "name": "currentBalance",
          "type": "uint256"
        },
        {
          "internalType": "uint256",
          "name": "numPlayers",
          "type": "uint256"
        },
        {
          "internalType": "uint256",
          "name": "currentState",
          "type": "uint256"
        }
      ],
      "name": "Lottery_UpkeekNotNeeded",
      "type": "error"
    },
    {
      "inputs": [],
      "name": "Lottery__NotEnoughETHEntered",
      "type": "error"
    },
    {
      "inputs": [],
      "name": "Lottery__NotOpen",
      "type": "error"
    },
    {
      "inputs": [],
      "name": "Lottery__TransferFailed",
      "type": "error"
    },
    {
      "inputs": [
        {
          "internalType": "address",
          "name": "have",
          "type": "address"
        },
        {
          "internalType": "address",
          "name": "want",
          "type": "address"
        }
      ],
      "name": "OnlyCoordinatorCanFulfill",
      "type": "error"
    },
    {
      "anonymous": false,
      "inputs": [
        {
          "indexed": true,
          "internalType": "address",
          "name": "player",
          "type": "address"
        }
      ],
      "name": "LotteryEnter",
      "type": "event"
    },
    {
      "anonymous": false,
      "inputs": [
        {
          "indexed": true,
          "internalType": "uint256",
          "name": "requestId",
          "type": "uint256"
        }
      ],
      "name": "RequestedLotteryWinner",
      "type": "event"
    },
    {
      "anonymous": false,
      "inputs": [
        {
          "indexed": true,
          "internalType": "address",
          "name": "winnerAddress",
          "type": "address"
        }
      ],
      "name": "WinnerPicked",
      "type": "event"
    },
    {
      "inputs": [
        {
          "internalType": "uint256",
          "name": "requestId",
          "type": "uint256"
        },
        {
          "internalType": "uint256[]",
          "name": "randomWords",
          "type": "uint256[]"
        }
      ],
      "name": "rawFulfillRandomWords",
      "outputs": [],
      "stateMutability": "nonpayable",
      "type": "function"
    },
    {
      "inputs": [],
      "name": "enterLottery",
      "outputs": [],
      "stateMutability": "payable",
      "type": "function",
      "payable": true
    },
    {
      "inputs": [
        {
          "internalType": "bytes",
          "name": "",
          "type": "bytes"
        }
      ],
      "name": "checkUpkeep",
      "outputs": [
        {
          "internalType": "bool",
          "name": "upkeepNeeded",
          "type": "bool"
        },
        {
          "internalType": "bytes",
          "name": "",
          "type": "bytes"
        }
      ],
      "stateMutability": "view",
      "type": "function",
      "constant": true
    },
    {
      "inputs": [
        {
          "internalType": "bytes",
          "name": "",
          "type": "bytes"
        }
      ],
      "name": "performUpkeep",
      "outputs": [],
      "stateMutability": "nonpayable",
      "type": "function"
    },
    {
      "inputs": [],
      "name": "getEnterenceFee",
      "outputs": [
        {
          "internalType": "uint256",
          "name": "",
          "type": "uint256"
        }
      ],
      "stateMutability": "view",
      "type": "function",
      "constant": true
    },
    {
      "inputs": [
        {
          "internalType": "uint256",
          "name": "index",
          "type": "uint256"
        }
      ],
      "name": "getPlayer",
      "outputs": [
        {
          "internalType": "address",
          "name": "",
          "type": "address"
        }
      ],
      "stateMutability": "view",
      "type": "function",
      "constant": true
    },
    {
      "inputs": [],
      "name": "getRecentWinner",
      "outputs": [
        {
          "internalType": "address",
          "name": "",
          "type": "address"
        }
      ],
      "stateMutability": "view",
      "type": "function",
      "constant": true
    },
    {
      "inputs": [],
      "name": "getLotteryState",
      "outputs": [
        {
          "internalType": "enum Lottery.LotteryState",
          "name": "",
          "type": "uint8"
        }
      ],
      "stateMutability": "view",
      "type": "function",
      "constant": true
    },
    {
      "inputs": [],
      "name": "getNumWords",
      "outputs": [
        {
          "internalType": "uint32",
          "name": "",
          "type": "uint32"
        }
      ],
      "stateMutability": "pure",
      "type": "function",
      "constant": true
    },
    {
      "inputs": [],
      "name": "getNuberOfPlayers",
      "outputs": [
        {
          "internalType": "uint256",
          "name": "",
          "type": "uint256"
        }
      ],
      "stateMutability": "view",
      "type": "function",
      "constant": true
    },
    {
      "inputs": [],
      "name": "getLastTimestamp",
      "outputs": [
        {
          "internalType": "uint256",
          "name": "",
          "type": "uint256"
        }
      ],
      "stateMutability": "view",
      "type": "function",
      "constant": true
    },
    {
      "inputs": [],
      "name": "getRequestConfirmations",
      "outputs": [
        {
          "internalType": "uint16",
          "name": "",
          "type": "uint16"
        }
      ],
      "stateMutability": "pure",
      "type": "function",
      "constant": true
    }
  ],
  "bytecode": "0x61016060405234801561001157600080fd5b50732ca8e0c643bde4c2e08ab1fa0da3401adad7734d8073ffffffffffffffffffffffffffffffffffffffff1660808173ffffffffffffffffffffffffffffffffffffffff168152505050662386f26fc1000060a08181525050732ca8e0c643bde4c2e08ab1fa0da3401adad7734d73ffffffffffffffffffffffffffffffffffffffff1660c08173ffffffffffffffffffffffffffffffffffffffff16815250507f79d3d8832d904592c0bf9818b621522c988bb8b0c05cdc3b15aea1b6e8db0c1560001b60e08181525050611ee667ffffffffffffffff166101008167ffffffffffffffff16815250506207a12063ffffffff166101208163ffffffff16815250506000600160146101000a81548160ff0219169083600181111561013b5761013a610156565b5b021790555042600281905550603c6101408181525050610185565b7f4e487b7100000000000000000000000000000000000000000000000000000000600052602160045260246000fd5b60805160a05160c05160e0516101005161012051610140516113f06101ed600039600061060b015260006104b10152600061048e0152600061046d01526000610431015260008181610679015261069f0152600081816102b2015261030601526113f06000f3fe6080604052600436106100a75760003560e01c80635f1b0fd8116100645780635f1b0fd8146101aa5780636b68c03c146101d55780636e04ff0d14610200578063b675400d1461023e578063c1af578514610269578063e55ae4e814610273576100a7565b80631fe543e3146100ac57806337899770146100d55780634585e33b14610100578063473f1ddc1461012957806353a2c19a146101545780635675e4c61461017f575b600080fd5b3480156100b857600080fd5b506100d360048036038101906100ce9190610cce565b6102b0565b005b3480156100e157600080fd5b506100ea610370565b6040516100f79190610d39565b60405180910390f35b34801561010c57600080fd5b5061012760048036038101906101229190610daf565b61037a565b005b34801561013557600080fd5b5061013e61056a565b60405161014b9190610e3d565b60405180910390f35b34801561016057600080fd5b50610169610594565b6040516101769190610e77565b60405180910390f35b34801561018b57600080fd5b5061019461059d565b6040516101a19190610d39565b60405180910390f35b3480156101b657600080fd5b506101bf6105a9565b6040516101cc9190610eaf565b60405180910390f35b3480156101e157600080fd5b506101ea6105b2565b6040516101f79190610f41565b60405180910390f35b34801561020c57600080fd5b5061022760048036038101906102229190611011565b6105c9565b6040516102359291906110f4565b60405180910390f35b34801561024a57600080fd5b50610253610675565b6040516102609190610d39565b60405180910390f35b61027161069d565b005b34801561027f57600080fd5b5061029a60048036038101906102959190611124565b61080c565b6040516102a79190610e3d565b60405180910390f35b7f000000000000000000000000000000000000000000000000000000000000000073ffffffffffffffffffffffffffffffffffffffff163373ffffffffffffffffffffffffffffffffffffffff161461036257337f00000000000000000000000000000000000000000000000000000000000000006040517f1cf993f4000000000000000000000000000000000000000000000000000000008152600401610359929190611151565b60405180910390fd5b61036c8282610853565b5050565b6000600254905090565b6000610394604051806020016040528060008152506105c9565b509050806104035747600080549050600160149054906101000a900460ff1660018111156103c5576103c4610eca565b5b6040517f5d2dc81f0000000000000000000000000000000000000000000000000000000081526004016103fa9392919061117a565b60405180910390fd5b60018060146101000a81548160ff0219169083600181111561042857610427610eca565b5b021790555060007f000000000000000000000000000000000000000000000000000000000000000073ffffffffffffffffffffffffffffffffffffffff16635d3b1d307f00000000000000000000000000000000000000000000000000000000000000007f000000000000000000000000000000000000000000000000000000000000000060037f000000000000000000000000000000000000000000000000000000000000000060016040518663ffffffff1660e01b81526004016104f29594939291906111ed565b6020604051808303816000875af1158015610511573d6000803e3d6000fd5b505050506040513d601f19601f820116820180604052508101906105359190611255565b9050807febf56642252004c18a776f30d528e7a0ce8c5db14b6596fb6550f630c8a24c6c60405160405180910390a250505050565b6000600160009054906101000a900473ffffffffffffffffffffffffffffffffffffffff16905090565b60006001905090565b60008080549050905090565b60006003905090565b6000600160149054906101000a900460ff16905090565b6000606060008060018111156105e2576105e1610eca565b5b600160149054906101000a900460ff16600181111561060457610603610eca565b5b14905060007f00000000000000000000000000000000000000000000000000000000000000006002544261063891906112b1565b119050600080600080549050119050600080471190508380156106585750825b80156106615750815b801561066a5750805b955050505050915091565b60007f0000000000000000000000000000000000000000000000000000000000000000905090565b7f00000000000000000000000000000000000000000000000000000000000000003410156106f7576040517fec269fd100000000000000000000000000000000000000000000000000000000815260040160405180910390fd5b6000600181111561070b5761070a610eca565b5b600160149054906101000a900460ff16600181111561072d5761072c610eca565b5b14610764576040517fe76be6fc00000000000000000000000000000000000000000000000000000000815260040160405180910390fd5b6000339080600181540180825580915050600190039060005260206000200160009091909190916101000a81548173ffffffffffffffffffffffffffffffffffffffff021916908373ffffffffffffffffffffffffffffffffffffffff1602179055503373ffffffffffffffffffffffffffffffffffffffff167f1d64fb5ba9f2548c5b98468d58f25b87b9e866afee0122e92d9fe722bf85076c60405160405180910390a2565b6000808281548110610821576108206112e5565b5b9060005260206000200160009054906101000a900473ffffffffffffffffffffffffffffffffffffffff169050919050565b600080805490508260008151811061086e5761086d6112e5565b5b60200260200101516108809190611343565b90506000808281548110610897576108966112e5565b5b9060005260206000200160009054906101000a900473ffffffffffffffffffffffffffffffffffffffff16905080600160006101000a81548173ffffffffffffffffffffffffffffffffffffffff021916908373ffffffffffffffffffffffffffffffffffffffff1602179055506000600160146101000a81548160ff0219169083600181111561092b5761092a610eca565b5b0217905550600067ffffffffffffffff81111561094b5761094a610b8b565b5b6040519080825280602002602001820160405280156109795781602001602082028036833780820191505090505b506000908051906020019061098f929190610a84565b504260028190555060008173ffffffffffffffffffffffffffffffffffffffff16476040516109bd906113a5565b60006040518083038185875af1925050503d80600081146109fa576040519150601f19603f3d011682016040523d82523d6000602084013e6109ff565b606091505b5050905080610a3a576040517f1c94012000000000000000000000000000000000000000000000000000000000815260040160405180910390fd5b8173ffffffffffffffffffffffffffffffffffffffff167f5b690ec4a06fe979403046eaeea5b3ce38524683c3001f662c8b5a829632f7df60405160405180910390a25050505050565b828054828255906000526020600020908101928215610afd579160200282015b82811115610afc5782518260006101000a81548173ffffffffffffffffffffffffffffffffffffffff021916908373ffffffffffffffffffffffffffffffffffffffff16021790555091602001919060010190610aa4565b5b509050610b0a9190610b0e565b5090565b5b80821115610b27576000816000905550600101610b0f565b5090565b6000604051905090565b600080fd5b600080fd5b6000819050919050565b610b5281610b3f565b8114610b5d57600080fd5b50565b600081359050610b6f81610b49565b92915050565b600080fd5b6000601f19601f8301169050919050565b7f4e487b7100000000000000000000000000000000000000000000000000000000600052604160045260246000fd5b610bc382610b7a565b810181811067ffffffffffffffff82111715610be257610be1610b8b565b5b80604052505050565b6000610bf5610b2b565b9050610c018282610bba565b919050565b600067ffffffffffffffff821115610c2157610c20610b8b565b5b602082029050602081019050919050565b600080fd5b6000610c4a610c4584610c06565b610beb565b90508083825260208201905060208402830185811115610c6d57610c6c610c32565b5b835b81811015610c965780610c828882610b60565b845260208401935050602081019050610c6f565b5050509392505050565b600082601f830112610cb557610cb4610b75565b5b8135610cc5848260208601610c37565b91505092915050565b60008060408385031215610ce557610ce4610b35565b5b6000610cf385828601610b60565b925050602083013567ffffffffffffffff811115610d1457610d13610b3a565b5b610d2085828601610ca0565b9150509250929050565b610d3381610b3f565b82525050565b6000602082019050610d4e6000830184610d2a565b92915050565b600080fd5b60008083601f840112610d6f57610d6e610b75565b5b8235905067ffffffffffffffff811115610d8c57610d8b610d54565b5b602083019150836001820283011115610da857610da7610c32565b5b9250929050565b60008060208385031215610dc657610dc5610b35565b5b600083013567ffffffffffffffff811115610de457610de3610b3a565b5b610df085828601610d59565b92509250509250929050565b600073ffffffffffffffffffffffffffffffffffffffff82169050919050565b6000610e2782610dfc565b9050919050565b610e3781610e1c565b82525050565b6000602082019050610e526000830184610e2e565b92915050565b600063ffffffff82169050919050565b610e7181610e58565b82525050565b6000602082019050610e8c6000830184610e68565b92915050565b600061ffff82169050919050565b610ea981610e92565b82525050565b6000602082019050610ec46000830184610ea0565b92915050565b7f4e487b7100000000000000000000000000000000000000000000000000000000600052602160045260246000fd5b60028110610f0a57610f09610eca565b5b50565b6000819050610f1b82610ef9565b919050565b6000610f2b82610f0d565b9050919050565b610f3b81610f20565b82525050565b6000602082019050610f566000830184610f32565b92915050565b600080fd5b600067ffffffffffffffff821115610f7c57610f7b610b8b565b5b610f8582610b7a565b9050602081019050919050565b82818337600083830152505050565b6000610fb4610faf84610f61565b610beb565b905082815260208101848484011115610fd057610fcf610f5c565b5b610fdb848285610f92565b509392505050565b600082601f830112610ff857610ff7610b75565b5b8135611008848260208601610fa1565b91505092915050565b60006020828403121561102757611026610b35565b5b600082013567ffffffffffffffff81111561104557611044610b3a565b5b61105184828501610fe3565b91505092915050565b60008115159050919050565b61106f8161105a565b82525050565b600081519050919050565b600082825260208201905092915050565b60005b838110156110af578082015181840152602081019050611094565b60008484015250505050565b60006110c682611075565b6110d08185611080565b93506110e0818560208601611091565b6110e981610b7a565b840191505092915050565b60006040820190506111096000830185611066565b818103602083015261111b81846110bb565b90509392505050565b60006020828403121561113a57611139610b35565b5b600061114884828501610b60565b91505092915050565b60006040820190506111666000830185610e2e565b6111736020830184610e2e565b9392505050565b600060608201905061118f6000830186610d2a565b61119c6020830185610d2a565b6111a96040830184610d2a565b949350505050565b6000819050919050565b6111c4816111b1565b82525050565b600067ffffffffffffffff82169050919050565b6111e7816111ca565b82525050565b600060a08201905061120260008301886111bb565b61120f60208301876111de565b61121c6040830186610ea0565b6112296060830185610e68565b6112366080830184610e68565b9695505050505050565b60008151905061124f81610b49565b92915050565b60006020828403121561126b5761126a610b35565b5b600061127984828501611240565b91505092915050565b7f4e487b7100000000000000000000000000000000000000000000000000000000600052601160045260246000fd5b60006112bc82610b3f565b91506112c783610b3f565b92508282039050818111156112df576112de611282565b5b92915050565b7f4e487b7100000000000000000000000000000000000000000000000000000000600052603260045260246000fd5b7f4e487b7100000000000000000000000000000000000000000000000000000000600052601260045260246000fd5b600061134e82610b3f565b915061135983610b3f565b92508261136957611368611314565b5b828206905092915050565b600081905092915050565b50565b600061138f600083611374565b915061139a8261137f565b600082019050919050565b60006113b082611382565b915081905091905056fea2646970667358221220692fd4a2eb1342d02c52988deabb365aacfd3ff9055674f64a902e3271a9cd2264736f6c63430008110033",
  "immutableReferences": {
    "10": [
      {
        "length": 32,
        "start": 690
      },
      {
        "length": 32,
        "start": 774
      }
    ],
    "204": [
      {
        "length": 32,
        "start": 1657
      },
      {
        "length": 32,
        "start": 1695
      }
    ],
    "210": [
      {
        "length": 32,
        "start": 1073
      }
    ],
    "212": [
      {
        "length": 32,
        "start": 1133
      }
    ],
    "214": [
      {
        "length": 32,
        "start": 1166
      }
    ],
    "216": [
      {
        "length": 32,
        "start": 1201
      }
    ],
    "231": [
      {
        "length": 32,
        "start": 1547
      }
    ]
  },
  "source": "//SPDX-License-Identifier: MIT\n\npragma solidity ^0.8.17;\n\nimport \"@chainlink/contracts/src/v0.8/VRFConsumerBaseV2.sol\";\nimport \"@chainlink/contracts/src/v0.8/interfaces/VRFCoordinatorV2Interface.sol\";\nimport \"@chainlink/contracts/src/v0.8/interfaces/KeeperCompatibleInterface.sol\";\n\nerror Lottery__NotEnoughETHEntered();\nerror Lottery__TransferFailed();\nerror Lottery__NotOpen();\nerror Lottery_UpkeekNotNeeded(uint256 currentBalance, uint256 numPlayers, uint256 currentState);\n\ncontract Lottery is VRFConsumerBaseV2, KeeperCompatibleInterface{\n    /* Types */\n    enum LotteryState {\n        OPEN, \n        CALCULATING\n    }\n\n    /* State variables */\n    uint256 private immutable i_enterenceFee;\n    address payable[] private s_players;\n    VRFCoordinatorV2Interface private immutable i_vrfCoordinator;\n    bytes32 private immutable i_keyHash;\n    uint64 private immutable i_subscriptionId;\n    uint32 private immutable i_callbackGasLimit;\n    uint16 private constant REQUEST_CONFIRMATIONS = 3;\n    uint32 private constant NUM_WORDS = 1;\n    \n    // Lottery variables \n    address payable private s_recentWinner;\n    LotteryState private s_lotteryState;\n    uint256 private s_lastTimestamp;\n    uint256 private immutable s_interval;\n\n    event LotteryEnter(address indexed player);\n    event RequestedLotteryWinner(uint256 indexed requestId);\n    event WinnerPicked(address indexed winnerAddress);\n\n    constructor() \n    VRFConsumerBaseV2(0x2Ca8E0C643bDe4C2E08ab1fA0da3401AdAD7734D){\n        i_enterenceFee = 0.01 * 10 ** 18;\n        i_vrfCoordinator = VRFCoordinatorV2Interface(0x2Ca8E0C643bDe4C2E08ab1fA0da3401AdAD7734D);\n        i_keyHash = 0x79d3d8832d904592c0bf9818b621522c988bb8b0c05cdc3b15aea1b6e8db0c15;\n        i_subscriptionId = 7910;\n        i_callbackGasLimit = 500000;\n        s_lotteryState = LotteryState.OPEN;\n        s_lastTimestamp = block.timestamp;\n        s_interval = 60;\n    }\n\n    function enterLottery() public payable{\n        if(msg.value < i_enterenceFee) {\n            revert Lottery__NotEnoughETHEntered();\n        }\n        if (s_lotteryState != LotteryState.OPEN) {\n            revert Lottery__NotOpen();\n        }\n        s_players.push(payable(msg.sender));\n\n        emit LotteryEnter(msg.sender);\n    }\n\n\n    /*\n    * to return true\n    * 1. Time interval should have passed\n    * 2. The lottery have at least 1 player\n    * 3. The lottery subscription need to have enough LINK\n    * 4. The lottery needs to be in 'open' state\n    */\n    function checkUpkeep(bytes memory /*checkData*/) public view override returns (bool upkeepNeeded, bytes memory /*performData*/){\n        bool isOpen = s_lotteryState == LotteryState.OPEN;\n        bool timePassed = (block.timestamp - s_lastTimestamp) > s_interval;\n        bool hasPlayers = s_players.length > 0;\n        bool hasBalance = address(this).balance > 0;\n        upkeepNeeded = (isOpen && timePassed && hasPlayers && hasBalance);\n    }\n\n    function performUpkeep(bytes calldata /*performData*/) external {\n        (bool upkeepNeeded, ) = checkUpkeep(\"\");\n        if (!upkeepNeeded) {\n            revert Lottery_UpkeekNotNeeded(address(this).balance, s_players.length, uint256(s_lotteryState));\n        }\n        s_lotteryState = LotteryState.CALCULATING;\n        uint256 requestId = i_vrfCoordinator.requestRandomWords(\n            i_keyHash,\n            i_subscriptionId,\n            REQUEST_CONFIRMATIONS,\n            i_callbackGasLimit,\n            NUM_WORDS\n        );\n        emit RequestedLotteryWinner(requestId);\n    }\n\n    function fulfillRandomWords(\n        uint256,  /*requestId,*/\n        uint256[] memory randomWords) internal override {\n        uint256 winnerIndex = randomWords[0] % s_players.length;\n        address payable winner = s_players[winnerIndex];\n        s_recentWinner = winner;\n        s_lotteryState = LotteryState.OPEN;\n        s_players = new address payable[](0);\n        s_lastTimestamp = block.timestamp;\n        (bool success, ) = winner.call{value: address(this).balance}(\"\");\n\n        if (!success) {\n            revert Lottery__TransferFailed();\n        }\n        emit WinnerPicked(winner);\n\n    }\n\n    /* View functions */\n    function getEnterenceFee() public view returns (uint256) {\n        return i_enterenceFee;\n    }\n\n    function getPlayer(uint256 index) public view returns (address) {\n        return s_players[index];\n    }\n\n    function getRecentWinner() public view returns(address) {\n        return s_recentWinner;\n    }\n\n    function getLotteryState() public view returns (LotteryState) {\n        return s_lotteryState;\n    }\n\n    function getNumWords() public pure returns (uint32) {\n        return NUM_WORDS;\n    }\n\n    function getNuberOfPlayers() public view returns (uint256) {\n        return s_players.length;\n    }\n\n    function getLastTimestamp() public view returns (uint256) {\n        return s_lastTimestamp;\n    }\n\n    function getRequestConfirmations() public pure returns (uint16) {\n        return REQUEST_CONFIRMATIONS;\n    }\n}",
  "sourcePath": "/Users/eldarst/React/lottery-auto-smart-contract/contracts/Lottery.sol",
  "compiler": {
    "name": "solc",
    "version": "0.8.17+commit.8df45f5f.Emscripten.clang"
  },
  "schemaVersion": "3.4.11",
  "updatedAt": "2022-12-26T08:29:26.314Z",
  "networkType": "ethereum",
  "devdoc": {
    "kind": "dev",
    "methods": {},
    "version": 1
  },
  "userdoc": {
    "kind": "user",
    "methods": {},
    "version": 1
  }
}